{
  "contractName": "Marketplace",
  "abi": [
    {
      "inputs": [],
      "name": "nome",
      "outputs": [
        {
          "internalType": "string",
          "name": "",
          "type": "string"
        }
      ],
      "stateMutability": "view",
      "type": "function"
    },
    {
      "inputs": [
        {
          "internalType": "string",
          "name": "_novoNome",
          "type": "string"
        }
      ],
      "name": "mudaNome",
      "outputs": [],
      "stateMutability": "nonpayable",
      "type": "function"
    },
    {
      "inputs": [
        {
          "internalType": "address",
          "name": "loja",
          "type": "address"
        }
      ],
      "name": "pagar",
      "outputs": [],
      "stateMutability": "payable",
      "type": "function"
    }
  ],
  "bytecode": "0x60806040526040518060400160405280600581526020017f76617a696f0000000000000000000000000000000000000000000000000000008152506000908051906020019061004f929190610062565b5034801561005c57600080fd5b50610165565b82805461006e90610134565b90600052602060002090601f01602090048101928261009057600085556100d7565b82601f106100a957805160ff19168380011785556100d7565b828001600101855582156100d7579182015b828111156100d65782518255916020019190600101906100bb565b5b5090506100e491906100e8565b5090565b5b808211156101015760008160009055506001016100e9565b5090565b7f4e487b7100000000000000000000000000000000000000000000000000000000600052602260045260246000fd5b6000600282049050600182168061014c57607f821691505b60208210810361015f5761015e610105565b5b50919050565b6105ac806101746000396000f3fe6080604052600436106100345760003560e01c8063034e5efa146100395780632deb124b14610055578063e5e1bf8f14610080575b600080fd5b610053600480360381019061004e91906102b0565b6100a9565b005b34801561006157600080fd5b5061006a6100f3565b6040516100779190610376565b60405180910390f35b34801561008c57600080fd5b506100a760048036038101906100a291906104cd565b610181565b005b8073ffffffffffffffffffffffffffffffffffffffff166108fc349081150290604051600060405180830381858888f193505050501580156100ef573d6000803e3d6000fd5b5050565b6000805461010090610545565b80601f016020809104026020016040519081016040528092919081815260200182805461012c90610545565b80156101795780601f1061014e57610100808354040283529160200191610179565b820191906000526020600020905b81548152906001019060200180831161015c57829003601f168201915b505050505081565b806000908051906020019061019792919061019b565b5050565b8280546101a790610545565b90600052602060002090601f0160209004810192826101c95760008555610210565b82601f106101e257805160ff1916838001178555610210565b82800160010185558215610210579182015b8281111561020f5782518255916020019190600101906101f4565b5b50905061021d9190610221565b5090565b5b8082111561023a576000816000905550600101610222565b5090565b6000604051905090565b600080fd5b600080fd5b600073ffffffffffffffffffffffffffffffffffffffff82169050919050565b600061027d82610252565b9050919050565b61028d81610272565b811461029857600080fd5b50565b6000813590506102aa81610284565b92915050565b6000602082840312156102c6576102c5610248565b5b60006102d48482850161029b565b91505092915050565b600081519050919050565b600082825260208201905092915050565b60005b838110156103175780820151818401526020810190506102fc565b83811115610326576000848401525b50505050565b6000601f19601f8301169050919050565b6000610348826102dd565b61035281856102e8565b93506103628185602086016102f9565b61036b8161032c565b840191505092915050565b60006020820190508181036000830152610390818461033d565b905092915050565b600080fd5b600080fd5b7f4e487b7100000000000000000000000000000000000000000000000000000000600052604160045260246000fd5b6103da8261032c565b810181811067ffffffffffffffff821117156103f9576103f86103a2565b5b80604052505050565b600061040c61023e565b905061041882826103d1565b919050565b600067ffffffffffffffff821115610438576104376103a2565b5b6104418261032c565b9050602081019050919050565b82818337600083830152505050565b600061047061046b8461041d565b610402565b90508281526020810184848401111561048c5761048b61039d565b5b61049784828561044e565b509392505050565b600082601f8301126104b4576104b3610398565b5b81356104c484826020860161045d565b91505092915050565b6000602082840312156104e3576104e2610248565b5b600082013567ffffffffffffffff8111156105015761050061024d565b5b61050d8482850161049f565b91505092915050565b7f4e487b7100000000000000000000000000000000000000000000000000000000600052602260045260246000fd5b6000600282049050600182168061055d57607f821691505b6020821081036105705761056f610516565b5b5091905056fea26469706673582212200f86d81aad3020446d48f30a9b74ecb1db2823211f791dd27d33c63f16934ab764736f6c634300080d0033",
  "immutableReferences": {},
  "source": "\ncontract Marketplace{\n    string public nome = \"vazio\";\n\n    function mudaNome(string memory _novoNome)public{\n        nome = _novoNome;\n    }\n\n    function pagar(address loja)public payable{\n        payable(loja).transfer(msg.value);\n    }\n\n}",
  "sourcePath": "/home/lucas/Documentos/lojinha-blockchain/contracts/Marketplace.sol",
  "compiler": {
    "name": "solc",
    "version": "0.8.13+commit.abaa5c0e.Emscripten.clang"
  },
  "schemaVersion": "3.4.7",
  "updatedAt": "2022-05-17T18:20:01.589Z",
  "devdoc": {
    "kind": "dev",
    "methods": {},
    "version": 1
  },
  "userdoc": {
    "kind": "user",
    "methods": {},
    "version": 1
  }
}